:020000040800F2
:10000000500D002099010008BD1100085B0C00088C
:100010001110000861080008FB1D00080000000026
:10002000000000000000000000000000D1170008E0
:100030009D08000800000000D1150008BD18000848
:10004000B3010008B3010008B3010008B3010008C0
:10005000B3010008B3010008B3010008B3010008B0
:10006000B3010008B3010008B3010008B3010008A0
:10007000B3010008B3010008B3010008B301000890
:10008000B3010008B3010008B3010008B301000880
:10009000B3010008B3010008B3010008B301000870
:1000A000B3010008B3010008B3010008B301000860
:1000B00021190008811A0008B3010008B3010008E3
:1000C000B3010008B3010008B3010008B301000840
:1000D000B3010008FD1B0008191C0008B30100084B
:1000E000B3010008B3010008B301000800F002F8F2
:1000F00000F042F80AA090E8000C82448344AAF180
:100100000107DA4501D100F037F8AFF2090EBAE87D
:100110000F0013F0010F18BFFB1A43F0010318473B
:10012000F42F000014300000103A24BF78C878C1C2
:10013000FAD8520724BF30C830C144BF04680C60ED
:10014000704700000023002400250026103A28BF35
:1001500078C1FBD8520728BF30C148BF0B60704739
:10016000642900F06F80782900F0A8800020704793
:100170001FB51FBD10B510BD00F0B8FA1146FFF74E
:10018000F7FF02F08DF800F0D6FA03B4FFF7F2FFA4
:1001900003BC01F03BFE00000948804709480047C6
:1001A000FEE7FEE7FEE7FEE7FEE7FEE7FEE7FEE727
:1001B000FEE7FEE704480549054A064B7047000084
:1001C000C1180008ED00000850070020500D002065
:1001D0005009002050090020704700000FB4044966
:1001E00010B503AA029800F04FFA10BC5DF814FB9A
:1001F0004800002070B5044685690068C10601D535
:10020000302600E02026C00707D070BDD4E90121C8
:1002100030469047206A401C20626D1EF6D570BDA6
:1002200070B5044685690078C00707D170BDD4E970
:10023000012120209047206A401C20626D1EF6D5C7
:1002400070BD00002DE9F0410646002410687529B4
:10025000314616A510D0AFF30080002802DA4042E4
:1002600013A507E031688A0701D512A502E0490706
:1002700004D511A5012401E0AFF3008000210A227A
:1002800006F1240709E0B0FBF2FCB0FBF2F302FB3D
:100290001C00303078541846491C0028F3D12346FE
:1002A0002A463046BDE8F04100F094B90000000055
:1002B0002D0000002B0000002000000070B5044657
:1002C0000D4621461068AFF300802188090502D54C
:1002D0000F4A7A4402E00E4A7A440E32002104F1B9
:1002E000240305E000F00F060009965D5E54491CEA
:1002F0000028F7D120780023000704D5702D02D004
:1003000009B1022311322046BDE8704000F062B905
:10031000022E00002DE9F05F894604464FF0000AE6
:10032000DFF824B1FB44C0F820A02046E1688847EC
:1003300000287DD0252806D0D4E901219047206AE5
:10034000401C2062F1E700255F462046E1688847AF
:100350002028064607DB312E05D2B81910F8200CEC
:1003600008B10543F1E7A80701D525F00405C4F855
:100370001CA00027C4F818A02A2E09D0304601F08E
:100380003EFD38B304EB8708303EC8F8186019E02A
:1003900059F8041B204604EB87029161E168884705
:1003A000012F064618D1E069002820DA25F0200543
:1003B0001DE0D8F8180000EB800006EB4000303854
:1003C000C8F818002046E1688847064601F017FD86
:1003D0000028EED1012F0AD02E2E08D12046E16848
:1003E00088477F1C0646022F45F02005C4DBA06924
:1003F000002803DA404245F00105A061E80701D07A
:1004000025F01005A6B1A6F14100192802D8203622
:1004100045F400654A463146204625604D46FFF7C3
:100420009FFE60B1012807D0ED1D25F0070000E018
:1004300007E000F1080978E705F1040975E730469F
:100440007AE7206ABDE8F09FD82D0000032A40F229
:10045000308010F0030C00F0158011F8013BBCF166
:10046000020F624498BF11F801CB00F8013B38BF7E
:1004700011F8013BA2F1040298BF00F801CB38BF8C
:1004800000F8013B11F0030300F02580083AC0F0AA
:10049000088051F8043B083A51F804CBA0E8081052
:1004A000F5E7121D5CBF51F8043B40F8043BAFF385
:1004B0000080D20724BF11F8013B11F801CB48BFDF
:1004C00011F8012B24BF00F8013B00F801CB48BF15
:1004D00000F8012B704710B5203AC0F00B80B1E84E
:1004E0001850203AA0E81850B1E81850A0E8185069
:1004F000BFF4F5AF5FEA027C24BFB1E81850A0E872
:10050000185044BF18C918C0BDE810405FEA827C8B
:1005100024BF51F8043B40F8043B08BF7047D207A2
:1005200028BF31F8023B48BF11F8012B28BF20F843
:10053000023B48BF00F8012B70474FF0000204292E
:10054000C0F0128010F0030C00F01B80CCF1040C02
:10055000BCF1020F18BF00F8012BA8BF20F8022B36
:10056000A1EB0C0100F00DB85FEAC17C24BF00F8DC
:10057000012B00F8012B48BF00F8012B70474FF00A
:10058000000200B5134694469646203922BFA0E8E3
:100590000C50A0E80C50B1F12001BFF4F7AF0907EF
:1005A00028BFA0E80C5048BF0CC05DF804EB8900E0
:1005B00028BF40F8042B08BF704748BF20F8022B23
:1005C00011F0804F18BF00F8012B7047704770473B
:1005D000704770472DE9F0470D469946924604460C
:1005E00000F124080168880604D5E06921F01001B3
:1005F000216000E00120A84201DD471B00E0002748
:10060000A1697A1902EB0900081AA0612078C006D6
:1006100002D42046FFF7EEFD002608E0D4E90121D0
:100620001AF806009047206A401C761C20624E454E
:10063000F4DB2078C0060AD52046FFF7DBFD06E094
:10064000D4E9012130209047206A401C2062381EE6
:10065000A7F10107F4DC07E0D4E9012118F805004F
:100660009047206A401C2062281EA5F10105F3DC9A
:100670002046FFF7D5FD2078000602D50220BDE810
:10068000F0870120FBE70000074B70B50D467B4467
:1006900000F015F80446284600F024F810B14FF099
:1006A000FF3070BD204670BD9B17000000487047AA
:1006B000EC06002001694A1C02610878704700B509
:1006C0008FB0CDE901310021059105497944CDE98B
:1006D000031011466846FFF71DFE0FB000BD000075
:1006E000E5FFFFFF007B00F0800070477546FFF7D5
:1006F000DDFFAE4605006946534620F007008546FB
:1007000018B020B5FFF756FDBDE820404FF00006B9
:100710004FF000074FF000084FF0000B21F00701E9
:10072000AC46ACE8C009ACE8C009ACE8C009ACE82C
:10073000C0098D46704710B50446AFF300802046CF
:10074000BDE81040FFF721BD00B585B0012148028A
:1007500000F05CFF0121042000F058FF4FF400403E
:1007600000F038FF0020009003904FF460200290CA
:1007700000208DF805008DF8040001208DF8100090
:1007800069460D4800F03AF801210B4800F016F8D0
:10079000094800F05BF800BF074800F024F8012882
:1007A000FAD0054800F057F800BF034800F011F8F0
:1007B0000128FAD005B000BD0024014021B18268B3
:1007C00042F00102826003E0826822F0010282604E
:1007D0007047014600208A6802F004020AB1012035
:1007E00000E000207047014600208A6802F00802FD
:1007F0000AB1012000E000207047000030B5024639
:100800000020002350680F4C20400D790C6844EA0A
:1008100005242043506090680B4C2040D1E90254DD
:100820002C434D7944EA450420439060D06A20F47B
:1008300070000C7C641EE4B2234340EA0350D06293
:1008400030BD0000FFFEF0FFFDF7F1FF816841F0D1
:10085000080181607047816841F004018160704740
:1008600000BFFEE710B500200349087020210348AF
:1008700000F0EAF910BD00002C0000200008014043
:1008800010B50120034908702021034800F0DEF96B
:1008900010BD00002C00002000080140704700B58A
:1008A000034603E04FF47A7000F005F8181EA3F138
:1008B0000103F7D100BD00EBC001C9004FF0E022F9
:1008C0005161002191610521116100BF4FF0E021CC
:1008D000096901F480310029F8D004214FF0E022A9
:1008E000116170470149C860704700000020024054
:1008F00030B5044604254FF4302000F09AF8054640
:10090000042D17D10C48006940F002000A49086123
:1009100008464461006940F0400008614FF430200F
:1009200000F087F805460448006941F6FD7108406B
:1009300001490861284630BD0020024004200B49CF
:10094000C96801F0010109B101200EE00749C96839
:1009500001F0040109B1022007E00449C96801F06F
:10096000100109B1032000E004207047002002407C
:100970000348006940F080000149086170470000A9
:100980000020024070B504460D460426F00200F037
:1009900050F80646042E11D10948006940F00100C4
:1009A000074908612580F00200F043F80646044834
:1009B000006941F6FE71084001490861304670BD8A
:1009C00000200240014608887047000002480349A1
:1009D0004860034848607047230167450020024093
:1009E000AB89EFCD2DE9F04104460F4615461E4672
:1009F000DDF81880FFF7EAFF3520FFF773FF204688
:100A0000FFF776FF39462046FFF7BCFF2946A01CBA
:100A1000FFF7B8FF3146201DFFF7B4FF4146A01D88
:100A2000FFF7B0FF3520FFF75DFFFFF7A1FFBDE83F
:100A3000F08100B502460423FFF780FF034603E080
:100A4000FFF77CFF0346521E012B01D1002AF7D18C
:100A500002B90523184600BD10B500F02BF800F0D0
:100A600001F810BD0EB50121022000F0BFFD40F2DB
:100A7000E730ADF804004720ADF800000020ADF8E5
:100A80000600ADF802008DF808006946084801F03C
:100A900033F80121064801F003F801221146044809
:100AA00001F021F80121024801F000F80EBD00001C
:100AB0000004004008B51D208DF8000000208DF8CE
:100AC000010003208DF8020001208DF80300684624
:100AD00000F076FB08BD000008B50121042000F0FD
:100AE00095FD10208DF803000120ADF800000320D3
:100AF0008DF802006946094800F012F80121074804
:100B000000F0A4F800208DF803000220ADF80000EA
:100B10006946024800F004F808BD000000080140E2
:100B20002DE9F04102460025002600200023002484
:100B3000002791F803C00CF00F0591F803C00CF0EA
:100B4000100CBCF1000F03D091F802C04CEA05056F
:100B500091F800C0BCF1000F31D0146800202BE0E8
:100B60004FF0010C0CFA00F3B1F800C00CEA0306D8
:100B70009E4220D183004FF00F0C0CFA03F7BC43C8
:100B800005FA03FC4CEA040491F803C0BCF1280FF9
:100B900006D14FF0010C0CFA00FCC2F814C00AE0B8
:100BA00091F803C0BCF1480F05D14FF0010C0CFACD
:100BB00000FCC2F810C0401C0828D1D31460B1F862
:100BC00000C0BCF1FF0F34DD546800202EE000F1BE
:100BD000080C4FF0010808FA0CF3B1F800C00CEA59
:100BE00003069E4221D183004FF00F0C0CFA03F74D
:100BF000BC4305FA03FC4CEA040491F803C0BCF1C1
:100C0000280F05D100F1080C08FA0CF8C2F814807E
:100C100091F803C0BCF1480F07D100F1080C4FF068
:100C2000010808FA0CF8C2F81080401C0828CED33E
:100C30005460BDE8F0810246002093680B400BB180
:100C4000012000E00020704741617047016170475A
:100C50000AB1016100E04161704700BFFEE700009A
:100C60004CF6CC400149086070470000003000405D
:100C700010B57D2000F04EFD28B111A0FFF7AEFAAF
:100C800000F0D4FC02E012A0FFF7A8FA012000F067
:100C90005FFD00BF612000F03DFD0028FAD045F265
:100CA000555000F033F8042000F024F840F63540A9
:100CB00000F026F800F016F8FFF7D2FF10BD000094
:100CC0004957444720525354202E2E2E0D0A00001F
:100CD0004E6F726D616C20525354202E2E2E0D0AD1
:100CE000000000004AF6AA20014908607047000091
:100CF000003000400149486070470000003000406B
:100D000001498860704700000030004001490860D8
:100D1000704700000030004008B50121082000F0B5
:100D200075FC48208DF803004FF47070ADF800009A
:100D300003208DF8020069460148FFF7F1FE08BD67
:100D4000000C014010B540219F48FFF774FF78B1B7
:100D500000209E4908709E4908809E48007800281F
:100D600040D000209B4908700B209B49087039E057
:100D70009648007880B996480088401C94490880BD
:100D8000084600880A282DDD0020088001209249AD
:100D900008708E49087025E08D480088B0F5FA7F0C
:100DA00005DA8B480088401C894908801AE0884889
:100DB0000088401C8649088088480088401C874974
:100DC000088008460088192804DD002008800120DA
:100DD000814908707E480088B0F5FA6F02DD012075
:100DE0007C49087080217848FFF725FF78B1002002
:100DF0007B4908707B4908807B480078002841D0F7
:100E00000020794908701620734908703AE0744848
:100E1000007888B973480088401C724908800846E9
:100E200000880A282EDD0020088002206A49087008
:100E300001206B49087025E06A480088B0F5FA7F08
:100E400005DA68480088401C664908801AE0654851
:100E50000088401C6349088064480088401C63493E
:100E6000088008460088192804DD00200880022038
:100E7000594908705B480088B0F5FA6F02DD01201F
:100E8000594908704FF480714F48FFF7D4FE70B194
:100E9000002057490870574908805748007828B300
:100EA00000205549087021204B4908703AE050480D
:100EB000007888B94F480088401C4E490880084691
:100EC00000880A282EDD002008800320424908708F
:100ED00001204749087025E046480088B0F5FA7FB0
:100EE00005DA44480088401C424908801AE041481D
:100EF0000088401C3F49088040480088401C3F490A
:100F0000088008460088192804DD00200880032096
:100F10003149087037480088B0F5FA6F02DD0120CA
:100F2000354908704FF400712748FFF784FE70B10F
:100F3000002033490870334908803348007828B3CB
:100F40000020314908702C20234908703AE02C48D1
:100F5000007888B92B480088401C2A490880084638
:100F600000880A282EDD0020088004201A49087015
:100F700001202349087025E022480088B0F5FA7F57
:100F800005DA20480088401C1E4908801AE01D48E8
:100F90000088401C1B4908801C480088401C1B49D5
:100FA000088008460088192804DD002008800420F5
:100FB0000949087013480088B0F5FA6F02DD012076
:100FC0001149087010BD0000000C014032000020E3
:100FD000360000202E000020460000203E000020A9
:100FE00033000020380000202F00002040000020A7
:100FF000340000203A000020300000204200002091
:10100000350000203C00002031000020440000207A
:1010100000BFFEE710B500220121084600F04CFA9F
:1010200005220221012000F047FA3A220521012081
:1010300000F008FA43220821012000F003FA0122FF
:101040000521104600F038FA05220621012000F0A3
:1010500033FA3A220D21012000F0F4F92522102163
:10106000012000F0EFF902220121104600F024FADD
:1010700003220221084600F01FFA3A22052102202D
:1010800000F0E0F918A20C21022000F06DFA1748D8
:101090000078A0B90A220421084600F00DFA0B22BC
:1010A0000521042000F008FA06221146042000F071
:1010B00003FA07221146042000F0FEF913E008228B
:1010C0000421084600F0F8F909220521042000F067
:1010D000F3F906221146042000F0EEF9072211462A
:1010E000042000F0E9F910BD70706D0015000020BB
:1010F00010B500220221012000F0DEF905220321B3
:10110000012000F0D9F90E220421012000F0D4F9C9
:101110000F220521012000F0CFF93A220B210120F6
:1011200000F090F901220221084600F0C5F90522DD
:101130000321022000F0C0F90E220421022000F059
:10114000BBF90F220521022000F0B6F93A220B214B
:10115000022000F077F902221146032000F0ACF9DA
:1011600003221146104600F0A7F90E2204210320A5
:1011700000F0A2F90F220521032000F09DF93A2288
:101180000B21032000F05EF90AA20321042000F0E5
:10119000EBF90E220421084600F08EF90F220521FA
:1011A000042000F089F93A220B21042000F04AF9CA
:1011B00010BD0000504D32350000000070470000A7
:1011C00070B5002100230F22C47804B3154C2468A5
:1011D00004F4E064C4F5E064210AC1F10403CA40E8
:1011E000447804FA03F184781440214309010E4C39
:1011F0000678A155047804F01F050124AC40057859
:101200006D11AD0005F1E025C5F8004109E0047855
:1012100004F01F050124AC40044D0678761145F812
:10122000264070BD0CED00E000E400E080E100E04D
:1012300002490143024A1160704700000000FA05AC
:101240000CED00E070B500240EE00021204600F017
:10125000E8F8002504E0002000F0AAF9681CC5B2F7
:10126000802DF8DB601CC4B2082CEEDB70BD0000E2
:1012700008B50121082000F0C9F914208DF80300F9
:1012800003208DF802008002ADF80000694607488F
:10129000FFF746FC0122D1020448FFF7D9FC0122E6
:1012A00091020248FFF7D4FC08BD0000000C014089
:1012B00070B50546002415E08020204100EA0502B3
:1012C0004FF480610E48FFF7C3FC0122D1020C48A5
:1012D000FFF7BEFC00224FF400610948FFF7B8FC9D
:1012E000601CC4B2082CE7DB0122D1020448FFF7DE
:1012F000AFFC00224FF400610148FFF7A9FC70BD6C
:10130000000C014010B5012291020A48FFF7A0FC31
:101310000122D1020748FFF79BFC00224FF48061B5
:101320000448FFF795FC00224FF400610148FFF7E5
:101330008FFC10BD000C014010B500224FF48061FD
:101340000648FFF785FC0122D1020448FFF780FC24
:10135000012291020148FFF77BFC10BD000C014007
:1013600070B5002406E0002500E06D1CB5F57A7F1D
:10137000FBD3641CB4F57A7FF5D3FFF779FFAE2079
:1013800000F006F9D52000F003F9802000F000F904
:10139000A82000F0FDF83F2000F0FAF8D32000F07C
:1013A000F7F8002000F0F4F8402000F0F1F8A12058
:1013B00000F0EEF8C82000F0EBF8DA2000F0E8F8D2
:1013C000122000F0E5F8812000F0E2F8CF2000F0D4
:1013D000DFF8D92000F0DCF8F12000F0D9F8DB20AC
:1013E00000F0D6F8302000F0D3F8A42000F0D0F8B8
:1013F000A62000F0CDF88D2000F0CAF8142000F0EF
:10140000C7F8AF2000F0C4F8FFF71CFF70BD10B59F
:101410000246012000E050430B1EA1F10101FAD168
:1014200010BD70B505460C4645F0B00000F0B0F8B0
:10143000102141EA141000F0ABF804F00F0000F0A6
:10144000A7F870BD2DE9F04105460E461746721EFD
:10145000D206110E6A1E5206100EFFF7E2FF00249C
:1014600009E0A7F12001134A02EB0111085D00F029
:101470009FF8601CC4B2082CF3DB721ED206110E5A
:101480006A1E012303EB4202D0B2FFF7CAFF002419
:101490000BE0A7F12001074A02EB011204F1080159
:1014A000505C00F085F8601CC4B2082CF1DBBDE88C
:1014B000F0810000A82800082DE9F04105460E46FD
:1014C0001746721E1207110E6A1E5206100EFFF703
:1014D000A8FF002407E0124901EB4711085D00F066
:1014E00067F8601CC4B2102CF5DB721E1207110ED7
:1014F0006A1E012303EB4202D0B2FFF792FF0024E1
:1015000009E0074901EB471204F11001505C00F0BB
:101510004FF8601CC4B2102CF3DBBDE8F081000072
:10152000982E00082DE9F04780460E4617461D46C6
:10153000002415E0281B411E0A20FFF768FFB7FBB7
:10154000F0F00A21B0FBF1F201FB120000F13009CA
:101550003019C1B24A464046FFF774FF601CC4B25E
:10156000AC42E7DBBDE8F0872DE9F04107460E46C7
:101570001546002407E02A5D3019C1B23846FFF74E
:1015800061FF601CC4B2285D0028F4D1BDE8F08181
:1015900010B50446FFF7B6FE7820FFF789FE00205D
:1015A000FFF786FE2046FFF783FEFFF7C5FE10BD5E
:1015B00010B50446FFF7A6FE7820FFF779FE40201D
:1015C000FFF776FE2046FFF773FEFFF7B5FE10BD6E
:1015D0007047000001460020034A506820F4404054
:1015E00008435060704700000010024029B1064ACD
:1015F000D2690243044BDA6104E0034AD2698243B0
:10160000014BDA61704700000010024029B1064A20
:1016100092690243044B9A6104E0034A926982434F
:10162000014B9A6170470000001002400348406A75
:1016300040F080700149486270470000001002408D
:1016400030B500210022002400232D4D6D6805F0E7
:101650000C0121B1042905D0082923D105E0294D29
:10166000056022E0274D05601FE0254D6D6805F4FB
:101670007012234D6D6805F48034022505EB92420B
:101680001CB9214D554305600BE01D4D6D6805F4F7
:1016900000351DB11C4D5543056002E0194D554301
:1016A000056002E0174D056000BF00BF144D6D6876
:1016B00005F0F0010909154D6B5C0568DD404560DA
:1016C0000F4D6D6805F4E061090A104D6B5C4568CB
:1016D000DD4085600A4D6D6805F46051C90A0B4D07
:1016E0006B5C4568DD40C560054D6D6805F44041A3
:1016F000890B074D6B5CC568B5FBF3F5056130BD23
:101700000010024000127A0000093D000000002095
:101710001000002010B501460022002300204A11CD
:10172000012A02D1094C236806E0022A02D1074CA3
:10173000236A01E0054C636A01F01F020124944012
:101740001C400CB1012000E0002010BD0010024040
:1017500001490860704700008004424208B5012139
:101760000820FFF753FF10208DF803004FF440507E
:10177000ADF8000003208DF8020069460148FFF72C
:10178000CFF908BD000C014010B50446012C04D16E
:1017900001030548FFF758FA05E0022C03D12103A5
:1017A0000148FFF751FA10BD000C014010B5044686
:1017B000012C04D101030548FFF748FA05E0022C8B
:1017C00003D121030148FFF741FA10BD000C01408D
:1017D000704710B500F002F810BD00000CB50020F5
:1017E000019000903348006840F48030314908602F
:1017F00000BF3048006800F4003000900198401CA1
:101800000190009818B90198B0F5A06FF1D129485E
:10181000006800F4003010B10120009001E00020C9
:1018200000900098012843D12348006840F0100040
:10183000214908600846006820F003000860084657
:10184000006840F0020008601A4840681949486082
:101850000846406848600846406840F48060486038
:101860000846406820F47C1048600846406840F410
:10187000E81048600846006840F08070086000BFCB
:101880000C48006800F000700028F9D00948406852
:1018900020F00300074948600846406840F0020015
:1018A000486000BF0348406800F00C000828F9D1E8
:1018B0000CBD0000001002400020024070470000F4
:1018C00010B51348006840F001001149086008464F
:1018D0004068104908400E494860084600680E49B3
:1018E00008400B4908600846006820F48020086022
:1018F0000846406820F4FE0048604FF41F008860EE
:10190000FFF767FF4FF000600449086010BD00005A
:10191000001002400000FFF8FFFFF6FE08ED00E0B7
:1019200010B50121880700F0CDF800287DD0FFF721
:1019300009FA45480078012809D14448007801286F
:1019400005D10020404908700220404908704048F5
:10195000007800285AD03F4800783F4909788842EB
:1019600005DB3E4800883E490988884203DA0120A9
:10197000FFF71CFF02E00120FFF706FF394800785F
:1019800039490978884203DD0220FFF70FFF02E0A2
:101990000220FFF7F9FE354800883549098888425A
:1019A00008DA3448007828B90120334908703149F1
:1019B00008700EE02D4800882D490988884208DD0E
:1019C0002C480078012804D12C49087000202949AE
:1019D00008702048007820490978884211DB2148A6
:1019E00000782149097888420BDC1C4800881C4992
:1019F0000988884205DB1D4800881D4909888842FE
:101A000002DAFEF73DFF01E0FEF72CFF0E480078FA
:101A10002C2813D10D48007801280FD100200A4945
:101A20000870022000F0F8FA00E00BE0FEF728FF53
:101A30004FF49670FEF733FFFEF714FF012188077D
:101A400000F031F810BD0000460000201400002016
:101A50001500002018000020270000201A00002098
:101A60002A00002019000020260000201C00002071
:101A7000280000204E000020160000201700002043
:101A800010B50121054800F01DF828B101210348D7
:101A900000F009F800F086FA10BD000000040040D4
:101AA000CA4302827047CA430282704721B102884A
:101AB00042F00102028004E002884FF6FE731A40F1
:101AC0000280704730B50246002000230024158AAA
:101AD00005EA0103958905EA010413B10CB101205F
:101AE00000E0002030BD1AB183890B43838102E0FE
:101AF00083898B4383817047002202881D4B984263
:101B00000ED01D4B98420BD0B0F1804F08D01B4B2C
:101B1000984205D01A4B984202D01A4B984204D1F1
:101B20004FF68F731A404B881A43174B984207D0D1
:101B3000164B984204D04FF6FF431A40CB881A4305
:101B400002808B8883850B8803850A4B98420BD0D3
:101B5000094B984208D00E4B984205D00D4B984245
:101B600002D00D4B984201D10B7A03860123838268
:101B700070470000002C0140003401400004004088
:101B800000080040000C004000100040001400401D
:101B90000040014000440140004801407FB5044638
:101BA0000D4601210846FFF721FD0020ADF80A008F
:101BB000ADF80600ADF80850ADF804408DF80C0003
:101BC00001A94FF08040FFF797FF012211469007CF
:101BD000FFF789FF1C208DF8000001208DF803001D
:101BE0008DF8010002208DF802006846FFF7E8FA40
:101BF00001218807FFF75AFF7FBD000010B540F2B2
:101C00002551044800F035F818B1024800F0ECF80E
:101C1000C4B210BD0038014008B540F22551074854
:101C200000F027F840B1054800F0DEF8C0B200909F
:101C30000121684600F07CF908BD00000044004026
:101C400021B1828942F40052828104E082894DF6FA
:101C5000FF731A408281704702460020B1F5007F71
:101C600000D100BF13880B400BB1012000E0002021
:101C7000704770B50246002400230025002040F67E
:101C80006A16B14200D100BFC1F3421501F01F0333
:101C9000012606FA03F3012D02D19689334006E0AE
:101CA000022D02D1168A334001E0968A33400C128D
:101CB000012606FA04F41688344013B10CB1012051
:101CC00000E0002070BDF0B503460024002600258A
:101CD000002040F66A17B94200D100BF1846C1F390
:101CE000421401F01F06012707FA06F5012C01D165
:101CF0000C3004E0022C01D1103000E014301AB195
:101D000007682F43076002E00768AF430760F0BD34
:101D10002DE9F04786B005460E460024A24600BFD6
:101D2000A1460027B08900B100BF2F462C8A4CF68F
:101D3000FF700440F08804432C82AC894EF6F31007
:101D40000440B08831890843718908430443AC8159
:101D5000AC8A4FF6FF400440B0890443AC8201A82E
:101D6000FFF76EFC1F48874202D1DDF810A001E0AA
:101D7000DDF80CA0A88900F4004040B10AEBCA00CD
:101D800000EB0A1031684900B0FBF1F807E00AEBFC
:101D9000CA0000EB0A1031688900B0FBF1F864203A
:101DA000B8FBF0F004012009642101FB1089A88927
:101DB00000F4004040B1322000EBC900B0FBF1F06C
:101DC00000F00700044308E0322000EB0910642112
:101DD000B0FBF1F000F00F0004432C8106B0BDE829
:101DE000F08700000038014001468888C0F30800F1
:101DF0007047C1F308028280704700BFFEE73038A9
:101E00000A2801D2012070470020704700BF7047A8
:101E100001B581B000200090694601AA5078087091
:101E200010784870BDF800000CBD000000BF054AE6
:101E3000128802F04002002AF9D0C2B2014B1B1DE9
:101E40001A80704700380140014800687047000060
:101E50005000002010B504462CB907A0FEF7BEF9CB
:101E60004FF0FF3010BD002020606060FF20207028
:101E700060700020F6E700004552523A2067697A08
:101E800050726F746F636F6C48656164496E6974FA
:101E9000206865616420697320656D707479200A1B
:101EA0000000000010B502460024002302B109B969
:101EB000002010BD022303E0D05C2044C4B25B1CB0
:101EC000481E9842F8D82046F3E7000070B5044653
:101ED0000D462CB90EA0FEF781F94FF0FF3070BD12
:101EE00040F21F111048FEF74AFB2A4621460E48D1
:101EF000801CFEF7ABFA0D48A0F85553012180F87D
:101F00003D12FFF7A1FF0949C1F857030020E6E79A
:101F10004552523A206461746120697320656D7086
:101F20007479200A0000000094020020580000206C
:101F300070B504460D46002624B90AA0FEF74EF9F6
:101F4000701E70BD2A4621460E4800F03AFB064638
:101F5000AE4205D00CA0FEF741F94FF0FF30F0E79C
:101F60003046EEE74552523A2067697A507574441C
:101F70006174612062756620697320656D70747983
:101F8000200A0000980400204552523A2046616918
:101F90006C656420746F2072625772697465200AE0
:101FA0000000000002480068401C014908607047BA
:101FB0005000002010B540F22E200A4908600A485F
:101FC000C860084600F0F3FA18B908A0FEF706F951
:101FD00002E00BA0FEF702F94FF488610D48FEF70E
:101FE000CEFA10BD98040020A8040020726243724B
:101FF000656174652053756363657373200A00001F
:102000007262437265617465204661696C64200A7E
:10201000000000005800002030B587B005460024BD
:10202000062D7CD2DFE805F003305F90BDEA01A801
:10203000FFF710FF0B208DF808008B4890F8341242
:10204000D0F83402401C884AC2F83402C8B28DF875
:1020500009000520FFF7DCFEADF80600092101A804
:10206000FFF720FF8DF80C00092101A800F0BAFB52
:102070000446002C03DA21467CA0FEF7AFF80921C4
:1020800001A8FFF723FFEAE004A8FFF7E3FE092019
:102090008DF81400744890F83412D0F83402401CC3
:1020A000714AC2F83402C8B28DF815008DF8185084
:1020B0000620FFF7ADFEADF812000A2104A8FFF7D5
:1020C000F1FE8DF819000A2104A800F08BFB0446EC
:1020D000002C03DA214665A0FEF780F80A2104A847
:1020E000FFF7F4FEBBE004A8FFF7B4FE09208DF86B
:1020F00014005D4890F83412D0F83402401C5A4A5B
:10210000C2F83402C8B28DF815008DF818500620B8
:10211000FFF77EFEADF812000A2104A800E09AE065
:10212000FFF7C0FE8DF819000A2104A800F05AFB41
:102130000446002C03DA21464CA0FEF74FF80A2192
:1021400004A8FFF7C3FE8AE001A8FFF783FE13206F
:102150008DF80800444890F83412D0F83402401C3E
:10216000414AC2F83402C8B28DF809000520FFF7D1
:102170004FFEADF80600092101A8FFF793FE8DF888
:102180000C00092101A800F02DFB0446002C03DA05
:10219000214636A0FEF722F8092101A8FFF796FE96
:1021A0005DE001A8FFF756FE15208DF808002E48C7
:1021B00090F83412D0F83402401C2B4AC2F8340292
:1021C000C8B28DF809000520FFF722FEADF8060021
:1021D000092101A8FFF766FE8DF80C00092101A86E
:1021E00000F000FB0446002C03DA21461FA0FDF797
:1021F000F5FF092101A8FFF769FE30E001A8FFF70C
:1022000029FE29208DF80800174890F83412D0F8DC
:102210003402401C144AC2F83402C8B28DF80900D6
:102220000520FFF7F5FDADF80600092101A8FFF72D
:1022300039FE8DF80C00092101A800F0D3FA0446FC
:10224000002C03DA214609A0FDF7C8FF092101A8E7
:10225000FFF73CFE03E00CA0FDF7C0FF00BF00BF8E
:10226000204607B030BD0000580000204552523AC9
:102270002075617274207772697465206572726F5F
:1022800072202564200A00004552523A20436667B6
:102290004D6F6465206572726F72210A0000000044
:1022A00008B54FF4A060FEF7C3FFFFF759F8FEF73B
:1022B0004BFAFEF711FCFEF72FFDFFF74FFA964899
:1022C000FEF780FB954908709348801CFEF77AFB67
:1022D0009349087043F63E010920FFF75FFC4FF475
:1022E000165000F02DFA4FF4E13000F0D7F9FEF768
:1022F000B3FB00F0D1FAFFF75DFEFEF7B9FC09E190
:10230000FEF7F0FC87480078012804D0022805D0A9
:10231000032802D10AE0FEF77DFEFAE0FEF792FF05
:10232000FEF7E6FE03207F490870F2E002237B48B7
:1023300002780D210120FFF7F5F802237848027892
:102340000D211846FFF7EEF80423774802880D2187
:102350000320FFF7E7F80423744802880D2118468C
:10236000FFF7E0F872480078012806D0022829D04B
:1023700003284CD0042824D171E06E48007803284B
:102380000DD100206B49087064480078401C6349F7
:10239000087008460078642801DB01200870654851
:1023A000007804280DD10020624908705B4800784D
:1023B000401E5A49087008460078642801DB6320F3
:1023C000087074E05B48007803280DD1002059495B
:1023D000087053480078401C51490870084600783E
:1023E000642801DB012008705248007804280DD1D0
:1023F0000020504908704A480078401E484908703B
:1024000008460078642801DB632008704FE04948E3
:10241000007803280ED10020464908704248008801
:10242000401C4149088008460088B0F5A57F01DDC1
:10243000012008803F48007804280FD100203D4942
:10244000087039480088401E3749088008460088CF
:10245000B0F5A57F02DD4FF4A570088027E0354870
:10246000007803280ED10020324908702F480088D8
:10247000401C2E49088008460088B0F5FA7F01DD2F
:10248000012008802B48007804280FD1002029491A
:10249000087026480088401E2449088008460088A5
:1024A000B0F5FA7F02DD4FF4FA70088000BF00BF7C
:1024B0002048007802282BD100201E4908701E48B1
:1024C000007816490978884211D11C4800781449CF
:1024D000097888420BD11A48008813490988884234
:1024E00005D1184800881149098888420BD00F4847
:1024F000008800900C480388094802780748017852
:102500000548FEF76FFA012006490870FEF79AFEAB
:1025100000BF00BFF4E6000000F001081800002032
:1025200019000020140000201A0000201C000020C8
:1025300024000020460000201E0000201F00002074
:10254000200000202200002000B5024612B94FF002
:10255000FF3000BD90685168884201D10020F8E743
:1025600050689168884203D290685168401AF0E739
:10257000104600F015F851689368C91AC1EB400085
:10258000E7E730B5044614B94FF0FF3030BD2046C0
:1025900000F006F805462046FFF7D6FF281AF5E7B3
:1025A000014611B94FF0FF3070470868FCE701465B
:1025B00011B94FF0FF30704700204860886000BFBD
:1025C000F9E72DE9F04104460F461546002604B10F
:1025D0001FB94FF0FF30BDE8F0812046FFF7D1FF73
:1025E000A84202D26FF00100F5E7A0686168884256
:1025F00034D32046FFF7D4FFA168C1EB4006AE42BA
:1026000018D3204600F03AF8E16800EB01082A46AA
:1026100039464046FDF71AFFA0682844A0602046CE
:10262000FFF7BEFF4000A168884201D80020A060EB
:102630002846D0E7204600F021F8E16800EB0108C9
:10264000324639464046FDF701FF0020A060AA1B34
:10265000B9192046FFF7B5FF3044BCE7204600F02B
:102660000DF8E16800EB01082A4639464046FDF7BF
:10267000EDFEA0682844A0602846ACE7014611B9E9
:102680004FF0FF30704788680A68904203D388682B
:102690000A68801AF6E78868F4E7000010B586B08B
:1026A0000446012144F20400FEF7B0FF4FF400702D
:1026B000ADF8140003208DF8160018208DF81700CF
:1026C00005A91D48FEF72CFA4FF48060ADF8140000
:1026D00004208DF8170005A91748FEF721FA2520D8
:1026E0008DF8000000208DF8010003208DF8020015
:1026F00001208DF803006846FEF762FD019400207A
:10270000ADF80800ADF80A00ADF80C00ADF8100007
:102710000C20ADF80E0001A90848FFF7F9FA0122D4
:1027200040F225510548FFF7CEFA01210348FFF793
:1027300087FA06B010BD00000008014000380140D3
:1027400010B586B0044601214804FEF74FFF012171
:102750000420FEF75BFF0420ADF8140003208DF881
:10276000160018208DF8170005A91C48FEF7D8F9A7
:102770000820ADF8140004208DF8170005A91748AB
:10278000FEF7CEF926208DF8000000208DF801001C
:1027900002208DF8020001208DF803006846FEF744
:1027A0000FFD01940020ADF80800ADF80A00ADF867
:1027B0000C00ADF810000C20ADF80E0001A908487F
:1027C000FFF7A6FA012240F225510548FFF77BFAF0
:1027D00001210348FFF734FA06B010BD000801409C
:1027E000004400402DE9F04105460E46002415B98D
:1027F000601EBDE8F08100241BE0295D1D48FFF745
:10280000F8FA00BF40211B48FFF726FA0028F9D04C
:10281000022C0DD3285DFF280AD155211548FFF75A
:10282000E8FA00BF40211348FFF716FA0028F9D054
:10283000641CB442E1D3FFF707FB07463246394632
:102840000DA0FDF7CBFC00240DE0295D0FA0FDF7E6
:10285000C5FC022C06D3285DFF2803D155210BA00F
:10286000FDF7BCFC641CB442EFD30AA0FDF7B6FC34
:102870003046BEE7004400404D4355325769466933
:102880005B2534643A2534645D3A20002530327883
:10289000200000000A00000010B515210148FDF7D6
:1028A0004CFE10BDD6060020000000000000000015
:1028B0000000000000000000000000F80000000020
:1028C000000000333000000000100C06100C060061
:1028D000000000000000000040C07840C0784000C8
:1028E000043F04043F040400007088FC083000002A
:1028F000001820FF211E0000F008F000E018000082
:1029000000211C031E211E0000F00888700000003A
:102910001E2123241927211010160E00000000008C
:102920000000000000000000000000E018040200A9
:10293000000000071820400000020418E00000001A
:102940000040201807000000404080F08040400018
:102950000202010F01020200000000F0000000006E
:102960000101011F01010100000000000000000042
:1029700080B07000000000000000000000000000B7
:102980000001010101010101000000000000000040
:1029900000303000000000000000000080601804DB
:1029A000006018060100000000E010080810E000B8
:1029B000000F102020100F00001010F80000000081
:1029C0000020203F202000000070080808887000C8
:1029D0000030282422213000003008888848300048
:1029E0000018202020110E000000C02010F8000068
:1029F00000070424243F240000F808888808080001
:102A00000019212020110E0000E010888818000015
:102A1000000F112020110E0000380808C8380800E7
:102A20000000003F00000000007088080888700067
:102A3000001C222121221C0000E010080810E000E8
:102A40000000312222110F00000000C0C000000071
:102A50000000003030000000000000800000000096
:102A6000000080600000000000008040201008008E
:102A70000001020408102000404040404040400057
:102A80000404040404040400000810204080000032
:102A90000020100804020100007048080808F00037
:102AA0000000003036010000C030C828E810E00007
:102AB0000718272423140B000000C038E000000092
:102AC000203C23020227382008F8888888700000FC
:102AD000203F202020110E00C030080808083800D0
:102AE000071820202010080008F808080810E00047
:102AF000203F202020100F0008F88888E8081000E8
:102B0000203F20202320180008F88888E8081000BB
:102B1000203F200003000000C030080808380000F3
:102B200007182020221E020008F808000008F808F4
:102B3000203F210101213F20000808F8080800007B
:102B40000020203F2020000000000808F8080800AE
:102B5000C08080807F00000008F888C02818080026
:102B6000203F20012638200008F80800000000005F
:102B7000203F20202020300008F8F800F8F8080056
:102B8000203F003F003F200008F830C00008F80850
:102B9000203F200007183F00E01008080810E00060
:102BA0000F10202020100F0008F808080808F00077
:102BB000203F210101010000E01008080810E0009A
:102BC0000F18242438504F0008F88888888870002F
:102BD000203F2000030C30200070880808083800CF
:102BE0000038202121221C00180808F808081800C5
:102BF0000000203F2000000008F808000008F80846
:102C0000001F202020201F000878880000C83808F6
:102C1000000007380E010000F80800F80008F8006E
:102C2000033C0700073C0300081868808068180808
:102C300020302C03032C30200838C800C838080086
:102C40000000203F2000000010080808C8380800D5
:102C50002038262120201800000000FE0202020079
:102C60000000007F40404000000C30C00000000029
:102C7000000000010638C00000020202FE00000051
:102C8000004040407F0000000000040202020400F7
:102C90000000000000000000000000000000000034
:102CA000808080808080808000020204000000001C
:102CB0000000000000000000000080808080000014
:102CC0000019242222223F2008F800808000000002
:102CD000003F112020110E000000008080800000C5
:102CE000000E112020201100000000808088F800D4
:102CF000000E112020103F20000080808080000006
:102D0000001F222222221300008080F08888881869
:102D10000020203F20200000000080808080800074
:102D2000006B94949493600008F800808080000009
:102D3000203F210000203F200080989800000000E4
:102D40000020203F20200000000000809898000014
:102D500000C08080807F000008F800008080800034
:102D6000203F24022D302000000808F80000000059
:102D70000020203F20200000808080808080800014
:102D8000203F20003F20003F8080008080800000A6
:102D9000203F210000203F20000080808080000034
:102DA000001F202020201F00808000808000000065
:102DB00080FFA12020110E00000000808080800094
:102DC000000E112020A0FF80808080008080800085
:102DD00020203F21200001000000808080808000B2
:102DE0000033242424241900008080E08080000027
:102DF0000000001F20200000808000000080800074
:102E0000001F202020103F208080800000808080D4
:102E100000010E3008060100808000800080808064
:102E20000F300C030C300F00008080008080800089
:102E30000020312E0E3120008080800000808080B4
:102E400080818E7018060100008080808080800064
:102E50000021302C2221300000000000807C020282
:102E600000000000003F404000000000FF000000A4
:102E700000000000FF0000000002027C8000000053
:102E80000040403F0000000000060101020204046F
:102E900000000000000000001060028C0000FE92A4
:102EA00092929292FE00000004047E01407E424213
:102EB0007E427E42427E40001060028C00FE929272
:102EC00092929292FE00000004047E014448507FDA
:102ED00040407F5048444000807000FF1008FE4290
:102EE0004242FA424242FE00806018070810FF503A
:102EF000484641424C40FF00100C055555D5057F12
:102F00000555555505140C001010108AA96B352570
:102F100025ABE908101010001060028C201808C8BA
:102F200038CF08082898000004047E01040201FF3D
:102F30004021060A112040000000FC242424FC2526
:102F40002624FC242424040040308F80844C552502
:102F50002525554C808080001010D0FF9014E4AFE0
:102F6000A4A4A4AFE4040000040300FF00894B2ADA
:102F70001A0E1A2A4B888000101090909090901092
:102F800010FF101011161000002060203F101010CC
:102F900000030C102040F800000000F8888C8A899B
:102FA000888888F800000000000000FF4444444482
:102FB000444444FF000000004044C44444444010E2
:102FC00010FF101010F00000103C131014B8403027
:102FD0000E014080403F000000002424242424FCF3
:102FE0002222222322000000020202020242827FE9
:102FF00002020202020202004044C444444440105F
:1030000010FF101010F00000103C131014B84030E6
:103010000E014080403F0000000022322AA6A2623A
:103020002111098101000000004222130B42827E1F
:1030300002020A12234600002030AC63300088C828
:10304000A8998E88A8C88800226722121280403072
:103050000F00003F4040710000F80122A0A2A22210
:10306000FE22AA3202FE000000FF0010130A4B20CD
:10307000170C133880FF0000008060F80704E4A4F8
:10308000A4BFA4A4E4040000010000FF40407F4A64
:103090004A4A4A4A7F4040004042CC0000FE8292A9
:1030A00092FE929282FE000000003F10887F001E78
:1030B0001212125E807F0000044444445F44C44402
:1030C00044445F44C4040400000000000000FF000A
:1030D000000810080700000030313233343536372D
:1030E000383941424344454640305800303132334C
:1030F000343536373839616263646566403078004C
:1031000004000008000000000000000200010000B0
:1031100010000000343100080000002058000000BA
:10312000280100088C31000858000020F80C00002D
:10313000440100080000000001020304010203042E
:10314000060708090204060801000000000000004C
:10315000000000000000000001000000000000006E
:10316000000000000000000000000000000000005F
:10317000000000000000000000000000000000004F
:0C31800000000000000000000000000043
:04000005080000ED02
:00000001FF
